:100000000C9470000C9429140C9456140C948D00CC
:100010000C948D000C948D000C948D000C948D002C
:100020000C948D000C948D000C948D000C948D001C
:100030000C948D000C948D000C948D000C948D000C
:100040000C9483140C948D000C948D000C948D00F2
:100050000C948D000C948D000C948D000C948D00EC
:100060000C948D000C948D00486F79740050616978
:100070006765313233000102030405060708090AE7
:100080000B0C0D000000000000000000000000004C
:100090000000000000000000000000000000000060
:1000A00000000000000000000000474554202F77AA
:1000B00069736869656C642E63666D20485454509A
:1000C0002F312E310D0A486F73743A207777772ECF
:1000D0006B6576696E686F79742E6F72670D0A00B2
:1000E00011241FBECFEFD4E0DEBFCDBF11E0A0E0F2
:1000F000B1E0EAE2FAE202C005900D92AA33B1073C
:10010000D9F714E0AAE3B1E001C01D92AC31B10708
:10011000E1F70E94FF130C9413150C940000FB01EF
:10012000DC0102C005900D9241505040D8F708956F
:10013000FC0105900020E9F7809590958E0F9F1F98
:100140000895FB01DC0102C001900D924150504026
:10015000D8F70895DC0101C06D9341505040E0F79D
:100160000895FB01DC014150504030F08D91019029
:10017000801919F40020B9F7881B990B0895FB0129
:10018000DC014150504048F001900D920020C9F729
:1001900001C01D9241505040E0F708950E94CB14D9
:1001A000089590E05EE34EE23FE32FEF509341016C
:1001B00010924201409343012A98A1E4B1E0FD016D
:1001C00080818EBD0DB407FEFDCF8EB5819381E099
:1001D000E434F807A9F72A9A30934101992311F0E2
:1001E0008FE001C080E880934201209343012A9868
:1001F0008C918EBD0DB407FEFDCF8EB58D9381E041
:10020000A434B807A9F72A9A913011F091E0CECF23
:100210008EE380934101109242018AE28093430170
:100220002A9820E030E0F901EF5BFE4F80818EBD1F
:100230000DB407FEFDCF8EB580832F5F3F4F233077
:10024000310589F72A9A9FE7909341011092420164
:10025000109243012A9820E030E0F901EF5BFE4F55
:1002600080818EBD0DB407FEFDCF8EB580832F5FDC
:100270003F4F2330310589F72A9A8091420184FF4C
:10028000E3CF9FE690934101109242011092430107
:100290002A9820E030E0F901EF5BFE4F80818EBDAF
:1002A0000DB407FEFDCF8EB580832F5F3F4F233007
:1002B000310589F72A9A80914201882321F480919F
:1002C00043018823F9F208958EE68093410110924C
:1002D0004201109243012A98A1E4B1E0FD0180811E
:1002E0008EBD0DB407FEFDCF8EB5819381E0E43461
:1002F000F807A9F72A9A8DE2809341018FEF809346
:10030000420180934301108211822A988C918EBD04
:100310000DB407FEFDCF8EB58D9381E0A634B807EE
:10032000A9F72A9A0895282F82E480934101109218
:1003300042012A98A1E4B1E0FD0180818EBD0DB497
:1003400007FEFDCF8EB5819381E0E334F807A9F76E
:100350002A9A81E08093410130914201662311F095
:10036000922F01C090E0822F80958323982B909349
:100370004301209342012A988C918EBD0DB407FE53
:10038000FDCF8EB58D9381E0A434B807A9F72A9AE2
:100390000895E89881E080934601089581E4809370
:1003A000410110924201109243012A98E1E4F1E0E8
:1003B00080818EBD0DB407FEFDCF8EB5819381E0A7
:1003C000E434F807A9F72A9A21E09091430180913B
:1003D0004201982397FF15C02093410180E8809344
:1003E00042012A98339780818EBD0DB407FEFDCF60
:1003F0008EB5819381E0E334F807A9F72A9A85E363
:1004000016C096FF5FC02093410180E480934201B3
:100410002A98339780818EBD0DB407FEFDCF8EB52F
:10042000819381E0E334F807A9F72A9A83E3806493
:100430008093410110924201109243012A98E1E415
:10044000F1E080818EBD0DB407FEFDCF8EB58193A6
:1004500081E0E434F807A9F72A9A9091420180E0FC
:100460002091430130E0282B392B3F70A0914C01A3
:10047000B0914D0180E88C932F5F3F4F2A9840E068
:1004800050E0FD01E40FF51F80818EBD0DB407FE25
:10049000FDCF8EB580834F5F5F4F4217530788F3C0
:1004A0002A9A80ED809341012A98809141018EBD66
:1004B0000DB407FEFDCF8EB5809341012A9A81E0ED
:1004C0008093470110924601E89A0895DC0180EA82
:1004D0008093410181E08093420180934301109217
:1004E0004401109245012A98E1E4F1E080818EBD3B
:1004F0000DB407FEFDCF8EB5819381E0E634F80799
:10050000A9F78AEA16968C93169717968C931797E5
:1005100083E018968C9318971B961C921B971A963B
:100520001C921A9719961C9219972A9820E030E08D
:100530000CC0FD01E20FF31F80818EBD0DB407FEDC
:10054000FDCF8EB580832F5F3F4F2617370788F387
:100550002A9A80EC809341012A98809141018EBDB6
:100560000DB407FEFDCF8EB5809341012A9A089500
:1005700080914A01882319F420E030E006C01092EF
:100580004A0120914E0130914F01C9010895809395
:100590004901089580914001089590934D01809301
:1005A0004C0170934F0160934E0108958AE391E0EE
:1005B0000895CF93DF93EB01E0914C01F0914D0151
:1005C0009589868988839983DF01159686E00D9049
:1005D00001928150E1F780914C0190914D01DC0135
:1005E0001696FC013B9686E001900D928150E1F752
:1005F00020914C0130914D01B901645F7F4F235E22
:100600003F4F48815981CB01B9010E94A1008881E7
:1006100099810C9699838883DF91CF9108950F93E8
:100620001F938C0183E0D8018C938DE011968C93FD
:10063000119712961C92129780911E0213968C931A
:10064000F801349680E2DF011D928A95E9F7409126
:100650001E02CF0168E670E050E00E948F00C801E2
:10066000849666E770E044E350E00E948F001F919B
:100670000F9108950F931F93CF93DF9380914901BA
:10068000882399F080914B01882379F460914E0181
:1006900070914F0180914C0190914D010E94660232
:1006A0001092490181E080934B018091460188239B
:1006B00011F00E94CE0180914701882309F47EC089
:1006C000E0914C01F0914D018181823081F08330C5
:1006D00020F4813009F070C007C0833009F441C0B4
:1006E000843009F069C03FC010924B0165C093810E
:1006F000913009F061C082818C3029F18D3030F465
:100700008830E9F18A3009F057C01BC0833129F1E4
:100710008431A1F1803109F04FC0878180933A0183
:10072000808580933B01818580933C018285809305
:100730003D01838580933E01848580933F0186E05F
:100740001EC088E01CC0A0E5B1E0379680E20190B1
:100750000D928150E1F787E012C0299A90934001F1
:100760002BC084E00CC08281813030F1833018F0DE
:10077000843011F507C029981092400183E08093DE
:1007800048011AC0938180E0248130E0282B392B66
:100790002130310519F02530310521F429981092C6
:1007A00040010AC02230310519F02630310521F40C
:1007B000299A81E08093400110924701909148016D
:1007C000943009F40FC2953040F4923091F0933098
:1007D00008F0ADC1992359F013C2973009F4FCC059
:1007E000983009F455C1963009F00AC244C082E03D
:1007F00005C2E0914C01F0914D0180EB8083E091C6
:100800004C01F0914D019183E0914C01F0914D012B
:1008100080E18283E0914C01F0914D011382E091DF
:100820004C01F0914D0181E0848320914C01309185
:100830004D012A98C901FC019C012B5F3F4F80812B
:100840008EBD0DB407FEFDCF8EB58193E217F30781
:10085000B1F72A9AE0914C01F0914D0180EC808330
:10086000E0914C01F0914D012A9880818EBD0DB42C
:1008700007FEFDCFB3C180910E01813041F0813080
:1008800020F0843008F0BCC141C088E0B7C1E091DD
:100890004C01F0914D0180EB8083E0914C01F0918F
:1008A0004D0182E08183E0914C01F0914D018AE09D
:1008B000828380914C0190914D0103960E940F0319
:1008C00020914C0130914D012A98C901FC019C01F5
:1008D000255A3F4F80818EBD0DB407FEFDCF8EB5EA
:1008E0008193E217F307B1F72A9AE0914C01F09156
:1008F0004D0180EC8083E0914C01F0914D012A98EC
:1009000080818EBD0DB407FEFDCF68C1E0914C0122
:10091000F0914D0180EB8083E0914C01F0914D010D
:1009200082E08183E0914C01F0914D018CE0828363
:1009300000914C0110914D01F8013396D8011396A6
:100940001C9280911F02818380911E0282831382F8
:10095000F801379680E2EF0119928A95E9F7409104
:100960001E02CF0168E670E050E00E948F00095D32
:100970001F4F80E4F80111928A95E9F740911F0218
:10098000C8016DE670E050E00E948F0020914C019C
:1009900030914D012A98C901FC019C0129593F4F12
:1009A00080818EBD0DB407FEFDCF8EB58193E21719
:1009B000F307B1F72A9AE0914C01F0914D0180ECD8
:1009C0008083E0914C01F0914D012A9880818EBD89
:1009D0000DB407FEFDCF02C1E0914C01F0914D0135
:1009E00080EB8083E0914C01F0914D0182E08183A6
:1009F000E0914C01F0914D0188E0828300914C011F
:100A000010914D01D8011396E8011B8280911E02BE
:100A100011968C931197F801359680E2EF011992A7
:100A20008A95E9F711964C91CF0168E670E050E0A5
:100A30000E948F00D8019596E0E5F1E080E20190F8
:100A40000D928150E1F780914C0190914D012A98CF
:100A50009C01F9012B5B3F4F80818EBD0DB407FED9
:100A6000FDCF8EB58193E217F307B1F72A9AE09193
:100A70004C01F0914D0180EC8083E0914C01F091AC
:100A80004D012A9880818EBD0DB407FEFDCFA6C012
:100A9000E0914C01F0914D0180EB8083E0914C019D
:100AA000F0914D0182E08183E0914C01F0914D0184
:100AB00084E18283E0914C01F0914D0181E08383D8
:100AC000E0914C01F0914D018AE08483E0914C016A
:100AD000F0914D0183E18583E0914C01F0914D014E
:100AE000168220914C0130914D012A98C901FC01D8
:100AF0009C01295F3F4F80818EBD0DB407FEFDCF65
:100B00008EB58193E217F307B1F72A9AE0914C0171
:100B1000F0914D0180EC8083E0914C01F0914D010A
:100B20002A9880818EBD0DB407FEFDCF57C0E0919D
:100B30004C01F0914D01EF01239680EB8083A09151
:100B40004C01B0914D0182E011968C93A0914C0123
:100B5000B0914D0183E112968C9380910E018383B5
:100B600080911E028983359680E2DF011D928A956D
:100B7000E9F740911E02CF0168E670E050E00E9464
:100B80008F001BA21AA280910F01813011F08230D8
:100B900009F48CA380914C0190914D012A989C01FD
:100BA000F901275D3F4F80818EBD0DB407FEFDCF5B
:100BB0008EB58193E217F307B1F72A9AE0914C01C1
:100BC000F0914D0180EC8083E0914C01F0914D015A
:100BD0002A9880818EBD0DB407FEFDCF8EB580832F
:100BE0002A9A0BC080914C0190914D016EE471E006
:100BF0000E94D90281E080934A0185E080934801F8
:100C0000DF91CF911F910F91089584B18E6284B9C5
:100C1000249884E085B980E58CBD81E08DBD8DB5DB
:100C20008EB5109246011092470110924801109221
:100C300040011092490110924A0110924B0188E83C
:100C400092E090934D0180934C0180E991E0909364
:100C50004F0180934E010E94D1000E9464018FEFEA
:100C600060E00E94930180EC61E00E94930188E6BD
:100C700090E00E94980080931E028DE690E00E9412
:100C8000980080931F0208950F931F9360912E0286
:100C900070912F0261157105F1F06733710518F439
:100CA00088E892E013C00EEB12E09B01265330401F
:100CB0006091370270913802C801A9010E94A10019
:100CC00060912E0270912F02C801C6970E94CD023A
:100CD00081E00E94C7021F910F9108950E94B802FF
:100CE00008950F931F930E946E0690932F02809396
:100CF0002E02892B81F1009194021091950280E0DF
:100D000098E00E9404090817190769F481E00E941D
:100D10001E0980912E0290912F02892B09F458C050
:100D20000E94D90F15C0009194021091950286E09F
:100D300098E00E9404090817190709F049C00E94A9
:100D40008A1180912E0290912F02892B09F440C0C4
:100D50000E9444063DC080E791E00E948307892BF2
:100D6000B9F180E791E00E9471078BE392E09093E4
:100D70003A028093390282E00E941E0980912E027D
:100D800090912F02892B21F00E94D90F0E944406D6
:100D900080912E0290912F02892B71F480E891E0CE
:100DA0000E948307892B41F080E891E00E9471073F
:100DB0000E94730F0E94440688E791E00E94830717
:100DC000892B31F088E791E00E9471070E94460F5D
:100DD0001F910F910895CF92DF92EF92FF920F93A0
:100DE0001F930E94D602FC0110810181F280E380F2
:100DF000D480C58080E791E044EF51E060E070E08E
:100E00000E94A50788E791E040E157E260E070E0CA
:100E10000E94A50780E891E040E355E760E070E0BC
:100E20000E94A5070E947908109388010093890108
:100E3000F0928A01E0928B01D0928C01C0928D01D8
:100E40000E9458129091040180E04091050150E009
:100E5000482B592B3091020120E08091030190E052
:100E6000822B932B90938402809385025093860269
:100E7000409387029091080180E04091090150E081
:100E8000482B592B3091060120E08091070190E01A
:100E9000822B932B90937C0280937D0250937E0251
:100EA00040937F0290910C0180E040910D0150E051
:100EB000482B592B30910A0120E080910B0190E0E2
:100EC000822B932B90938002809381025093820215
:100ED000409383021F910F91FF90EF90DF90CF908E
:100EE0000895FC0180819181A281B38124813581A3
:100EF00046815781820F931FA41FB51F8083918362
:100F0000A283B38308950F931F938C010E94CE0098
:100F1000E0E0F0E0D8012D913D914D915C91139767
:100F2000621B730B840B950B14962D913D914D9183
:100F30005C911797621773078407950710F0E1E03B
:100F4000F0E0CF011F910F9108950F931F938C0133
:100F5000FC0144835583668377830E94CE00F801A9
:100F600060837183828393831F910F910895FC01A5
:100F70005381560F50933502272F33274281420F5A
:100F800040933402A181A0933302E081E0933202C6
:100F9000842F90E08217930748F48A2F8F5F809305
:100FA0003302882319F4EF5FE0933202852F90E03B
:100FB00070708617970790F4842F8F5F80933402A8
:100FC000882361F4809133028F5F809333028823FA
:100FD00029F4809132028F5F809332020895E6E90E
:100FE000F2E040E050E0308120E08181B901680FFB
:100FF000711D460F571F4617570710F44F5F5F4F7D
:10100000329672E0E93AF70770F382E0E93AF807BE
:1010100051F4908180E0480F591F4817590718F480
:101020004F5F5F4F06C04115510519F42FEF3FEF99
:1010300002C0342F252FC901089580919902682F8D
:1010400070E0645170409091980280E0680F791FC1
:10105000AB014A5F5F4FE2EAF2E0308120E081813C
:10106000D901A80FB11D4A0F5B1F4A175B0710F487
:101070004F5F5F4F3296B2E0E93AFB0770F382E0D0
:10108000E93AF80749F4908180E0480F591F481762
:10109000590710F44F5F5F4F67557D4FEAEAF2E062
:1010A0000EC0308120E08181D901A80FB11D4A0F07
:1010B0005B1F4A175B0710F44F5F5F4F3296E617CE
:1010C000F70778F3E617F70751F4908180E0480FAF
:1010D000591F4817590718F44F5F5F4F06C0411555
:1010E000510519F42FEF3FEF02C0342F252FC9010E
:1010F000089510927B0210927A021092540281E0BD
:101100008093960180E094E0909395018093940100
:101110000895DC0140915402E0913F02F0914002B9
:1011200020919401309195012F5F3F4F5DE7203072
:10113000350710F020E030E1922F832F442319F07F
:10114000E817F90789F3209394013093950180E023
:1011500090E0442329F410929601EBE3F2E00AC0F8
:10116000473011F48BE392E0FC0181E0809396011B
:10117000309779F182E0818F80919001848780910E
:10118000910185878091920186878091930187875D
:1011900089E491E0938B828B958B848B81E090E046
:1011A000918B808B138E81E0828F83E0808F168AF3
:1011B00080E1878B34832583778366838D919C912F
:1011C00011979183808312968D919C9113979383AD
:1011D0008283CF010895BC018091390290913A0237
:1011E00008960E94B707E0913902F0913A02809187
:1011F0003202808780913302818780913402828716
:101200008091350283870895282F892F922F089582
:10121000AC01FB011616170684F460931A04F093D0
:101220001B0420913002309131028217930729F07C
:10123000C901BA01AF010E94A10008950F931F9345
:10124000CF93DF93C0913902D0913A022EEB32E076
:1012500030933802209337023093310220933002CA
:10126000833059F4898D8F70833009F004C68889E2
:101270009989892B09F0FFC589C0823009F08AC09D
:10128000809193018F5F80939301882399F48091DB
:1012900092018F5F80939201882361F48091910184
:1012A0008F5F80939101882329F4809190018F5F53
:1012B0008093900110922F0210922E0210921B0424
:1012C00010921A04298D273011F0253041F48A8DAF
:1012D0008F5F8A8F883709F0CEC5198ECCC522233F
:1012E00009F4C9C588899989892B09F44BC08A8D6D
:1012F00081508A8F8F5F09F0BEC53B8D383029F051
:101300002150223048F4353039F4198E80E880932A
:1013100036020E94881265C4353010F080E307C0A1
:1013200083E090E002C0880F991F3A95E2F78A8F18
:101330008B8D8F5F8B8F898D90E08F709070833055
:101340009105D1F08430910544F48130910509F480
:101350002EC2029709F08FC50CC08630910509F4A2
:10136000D3C38830910509F4CFC3049709F083C52E
:10137000CBC31092B7021EC284E0809336020E9453
:10138000881264C42F70233009F075C588E08093FB
:1013900036021BC4890108521040809196028534A0
:1013A00009F069C59091980280E020919902AC0102
:1013B000420F511D80912E0290912F0284179507A4
:1013C00008F459C550932F0240932E0280919C023D
:1013D00090E08F739070892B09F04DC580919D022C
:1013E000882309F048C520918402309185028091BC
:1013F0001401909115012817390731F48091860264
:1014000090918702892BA1F08091A6029091A7026A
:101410008217930709F02FC52091A8023091A902E5
:1014200080918602909187022817390709F023C519
:101430000E94EF078F5F9F4F09F01DC580919F02AB
:101440008630D1F1813009F016C58091AA0288302A
:1014500009F011C51092AA028091AC029091AD02E0
:10146000EFEF873F9E0710F0099601C00896909312
:10147000AD028093AC028091A2029091A30290935E
:10148000A7028093A6028091A4029091A502909356
:10149000A9028093A8028091840290918502909382
:1014A000A3028093A202809186029091870290937A
:1014B000A5028093A402E3C40E941D088F5F9F4F82
:1014C00009F0D9C4CBE3D2E0898D882329F120919A
:1014D000AC023091AD028C819D8128173907E1F46F
:1014E0002091AA023091AB028E819F812817390783
:1014F00099F42091A2023091A30288819981281742
:10150000390751F42091A4023091A5028A819B8170
:101510002817390709F467C1EF9622E0CB33D207C9
:1015200099F290F28091B7028F738230F1F480913A
:10153000AC029091AD029093990180939801109222
:10154000960141E00EC0209198013091990180915F
:101550007A0290917B022817390709F470C04093F2
:10156000960180919601882371F38091B70282FDE4
:1015700082C484E1F80181A388E290E090932F0275
:1015800080932E0280E580A39091B1028091B502F4
:10159000838F3091B0028091B402828F368F409158
:1015A000AF028091B302818F458F2091AE022093CC
:1015B00096018091B202808F248F9F5F978F99232D
:1015C00061F4832F8F5F868F882339F4842F8F5F98
:1015D000858F882311F42F5F248F2091AA023091E8
:1015E000AB0230939901209398018091AC029091C5
:1015F000AD02F801958B848B378B268B8091A202EC
:101600009091A3029093A7028093A6028091A402D6
:101610009091A5029093A9028093A80280918402E0
:10162000909185029093A3028093A20280918602FA
:10163000909187029093A5028093A402DEC310923A
:101640009601C0E0D0E021E014C0809154028823CC
:1016500019F4CBE3D2E014C0873049F4209729F085
:10166000909155028A8D891710F4CBE3D2E0209334
:10167000960180919601882341F3209709F4FBC3DA
:10168000D0933A02C093390283E08A8F888F1E8AF2
:1016900084E08F8B1B8E8091AC029091AD029D8374
:1016A0008C838091AA029091AB029F838E8380915C
:1016B000A2029091A302998388838091A4029091C1
:1016C000A5029B838A8381E0898F809190018C871A
:1016D000809191018D87809192018E8780919301F5
:1016E0008F8781E090E0998B888B8091B1028B8706
:1016F0008091B0028A878091AF0289878091AE0283
:10170000888781E090E00E94EB088091B60290E02B
:10171000807F9070813591050CF449C0109296013C
:1017200034C0F901E857FD4F86A9809397018823BB
:10173000F1F1813021F44F5F4093960126C0823051
:10174000C1F487A98430A9F430AD20E081AD90E0E8
:10175000822B932B9093990180939801F1E08A3426
:101760009F0710F089E491E09B8B8A8B9D8B8C8B7B
:101770001EC090919601E92FF0E0E857FD4F87A930
:101780008823A9F0890F8093960140919601242F18
:1017900030E08091B60282958F7090E00597880FB7
:1017A000991F880F991F281739070CF4BACF80E1C9
:1017B0008093B7028091B70282608093B70282E083
:1017C0008093BE0284E08093BF0281E08093C002D8
:1017D00089E48093C1028CE290E090932F02809381
:1017E0002E0280E6B7C2D0933A02C093390210921B
:1017F00036028091B702482F50E082FF03C0198E55
:1018000080E251C28091B60282958F70880F880F56
:101810008093960120912E0230912F022451304066
:10182000281B310930932F0220932E02898D8F704F
:10183000823029F44F7350704231510509F1232B46
:1018400039F48091B70290E083709070892BC1F0D9
:101850009091AE028885981709F072C29091AF02FC
:101860008985981709F06CC29091B0028A85981703
:1018700009F066C29091B1028B85981709F060C299
:101880008091B70284FF51C068897989611571051B
:1018900009F44BC0CE010C960E94B7072091B2020A
:1018A00080913202281709F040C09091B3028091D4
:1018B00033029817D1F59091B402809134029817B1
:1018C000A1F59091B50280913502981771F52C879A
:1018D000809133028D87809134028E87809135020A
:1018E0008F878B8D8823D1F42E89988D8A8D981BB4
:1018F000822F869586958695981B392F320F3E8BC1
:101900008F89282F26952695821B97FD9195890F03
:101910008F8B369536953695830F888F81E080932F
:101920003602888D8A8F198A188A898D282F30E08F
:10193000C9018F7090708430910509F4B9C1853068
:1019400091055CF48230910591F1833091050CF0A2
:10195000B1C0019709F08FC210C08630910509F41B
:10196000E7C1863091050CF4C3C18730910509F4B5
:10197000E7C1089709F07FC290C18091360280FFCD
:101980007AC283E0898F80E480933602198A188AAC
:1019900020912E0230912F022115310509F411C139
:1019A00082E480933602C9010E94EB080AC180914B
:1019B000360280FF74C08091B7028F73823109F0C4
:1019C0006EC08091B60290E0807F90708135910565
:1019D0000CF449C01092960134C0F901E857FD4F4C
:1019E00086A9809397018823F1F1813021F44F5F1C
:1019F0004093960126C08230C1F487A98430A9F4AF
:101A000030AD20E081AD90E0822B932B9093990133
:101A10008093980121E08A34920710F089E491E0E4
:101A20009B8B8A8B9D8B8C8B1EC090919601E92F8E
:101A3000F0E0E857FD4F87A98823A9F0890F80932C
:101A4000960140919601242F30E08091B602829554
:101A50008F7090E00597880F991F880F991F28179E
:101A600039070CF4BACF83E0898F8091AE02888762
:101A70008091AF0289878091B0028A878091B102FC
:101A80008B8781E090E00E94EB0882E4809336022D
:101A9000198A188A10922F0210922E0292C080E2A8
:101AA000809336020E948812E0913902F0913A0246
:101AB000118E5BCD8091B70280FF2AC024FD28C023
:101AC00088899989892B09F0D6C180912E0290913D
:101AD0002F0201960E94EB0820913602822F80612E
:101AE0008093360280912E0290912F02892B19F05B
:101AF0002261209336020E94881281E090E0998B47
:101B0000888B88E0898F1B8E81E18093B7021BC18F
:101B100085FF21C06091BC02362F20E04091BD02BC
:101B200050E0242B352B8091370290913802820FA0
:101B3000931F9093380280933702962F80E0842B76
:101B4000952B20912E0230912F02281B390B3093B8
:101B50002F0220932E0220912E0230912F02211568
:101B6000310559F0898D84FD08C08091360282606C
:101B700080933602C9010E94EB089091B80280E080
:101B80002091B902820F911D909399018093980141
:101B90002C893D892817390710F0892B21F43093BF
:101BA00099012093980180919801909199019B8BC4
:101BB0008A8B8091360290E083709070892B09F4B3
:101BC0005AC110921B0410921A040E94881280912C
:101BD0003602282F85FF07C010921B0410921A04AA
:101BE000198E84E192CF84FF0AC010921B041092D8
:101BF0001A0481E090E0998B888B84E083CF8091F8
:101C00001A0490911B04892B01F120FF02C0198A4C
:101C1000188A888999890097A1F42A893B8980913B
:101C20001A0490911B042817390720F430931B04E1
:101C300020931A0480911A0490911B04998B888B2D
:101C400004C090931B0480931A041B8E8091300271
:101C500090913102909338028093370280911A0458
:101C600090911B04892B59F088899989009739F044
:101C7000889690932F0280932E0288E10BC080916A
:101C8000360281FFF8C088E290E090932F028093A3
:101C90002E0280E18093B7025CC08091360280FF03
:101CA000EAC0198E80E1809336020E948812E3C058
:101CB00080912E0290912F02009711F00E94EB0864
:101CC0008091B7029091360280FF0BC090FF06C052
:101CD00087E0898F1A8E198A188A19C086E0898F41
:101CE00016C090FF1EC085E0898F198A188AC3C06C
:101CF00080912E0290912F02009711F00E94EB0824
:101D00008091B70280FF0DC087E0898F1A8E81E035
:101D100090E00E94EB0880E1809336020E948812D6
:101D20000FC080912E0290912F02892B49F4A3C0FD
:101D30008091360280FF9FC087E0898F1A8E9BC0FA
:101D400080E1F80181A388E290E090932F028093D4
:101D50002E0280E58093B60288858093B202898541
:101D60008093B3028A858093B4028B858093B502F9
:101D70008C858093AE028D858093AF028E85809393
:101D8000B0028F858093B10286E080939F028C81A0
:101D90009D819093AB028093AA028E819F81909344
:101DA000AD028093AC028091840290918502909361
:101DB000A3028093A2028091860290918702909361
:101DC000A5028093A402888199819093A7028093B1
:101DD000A6028A819B819093A9028093A802898D93
:101DE00084FF05C01092B9021092B80206C081E0CB
:101DF0008093B80289E48093B90280E480939E02C4
:101E000080912F028093980280912E0280939902F4
:101E10001092BD021092BC021092BB021092BA0244
:101E20000E941D08809590959093BB028093BA0202
:101E300085E4809396021092970210929D02109270
:101E40009C0280918E0190918F01019690938F0159
:101E500080938E0190939A0280939B021092A1022C
:101E60001092A0020E94EF07809590959093A10296
:101E70008093A00204C010922F0210922E021092A2
:101E80003602DF91CF911F910F9108958091F80153
:101E90008F5F8093F8011092F6014BE01FC0249FE2
:101EA000F0011124E656FE4F828193812081318119
:101EB000822B932B892B69F08091F80190E0228589
:101EC000821B91098837910524F0108211821282B9
:101ED00013828091F6018F5F8093F6012091F601C5
:101EE0002830E8F2089588E892E06FEF70E046E06D
:101EF00050E00E94AA00A8EAB2E0E8E8F1E086E03B
:101F000001900D928150E1F7AEE8B2E0E8E8F1E02F
:101F100086E001900D928150E1F7AEE9B2E0E8E889
:101F2000F1E086E001900D928150E1F7209184026A
:101F3000309185023093AF022093AE0280918602E9
:101F4000909187029093B1028093B0023093A502E2
:101F50002093A4029093A7028093A60280E092E0CF
:101F600090939D0280939C0280E091E09093970271
:101F70008093960288E090E0909399028093980273
:101F800086E080939A0284E080939B0288E096E04A
:101F900090939502809394028EEB92E09093380296
:101FA000809337028AE290E090932F0280932E0272
:101FB00008954091A6025091A70280911801909136
:101FC00019014817590789F48091A8029091A90234
:101FD0008F5F9F4F51F4A8E8B2E0ECE1F1E086E0BA
:101FE00001900D928150E1F7CFC0809184029091D1
:101FF00085028427952720918002309181028223D7
:102000009323892B91F46091A8027091A902809189
:10201000860290918702862797272091820230912D
:10202000830282239323892B89F080917C029091F3
:102030007D029093F3018093F20180917E02909152
:102040007F029093F5018093F40108C05093F3014F
:102050004093F2017093F5016093F4011092F60140
:102060006091F2017091F3014091F4015091F501FA
:10207000E0E0F0E020E03BE013C0239FF0011124FA
:10208000E656FE4F808191816817790741F482817D
:1020900093814817590719F42093F6016DC02F5FFB
:1020A000283058F32093F601283009F065C088E8FD
:1020B00092E06FEF70E046E050E00E94AA00E8EA8C
:1020C000F2E086E0DF011D928A95E9F77A97A8E8A9
:1020D000B1E086E00D9001928150E1F7AEE9B2E007
:1020E000E8E8F1E086E001900D928150E1F78091FF
:1020F000F2019091F3019093AF028093AE02809130
:10210000F4019091F5019093B1028093B002809117
:102110008402909185029093A5028093A4028091FD
:102120008602909187029093A7028093A60280E096
:1021300091E090939D0280939C02909397028093EC
:10214000960288E090E0909399028093980286E04E
:1021500080939A0284E080939B0288E096E09093BB
:102160009502809394028EEB92E0909338028093D4
:1021700037028AE290E01CC0A8E8B2E0349686E01C
:1021800001900D928150E1F7AEE8B2E0E8E8F1E0AD
:1021900086E001900D928150E1F788E090E0909305
:1021A00095028093940280912E0290912F020E96B8
:1021B00090932F0280932E020895DF92EF92FF9268
:1021C0000F931F93CF93DF93DC01062FD72E10922E
:1021D000F601E0E0F0E060E01BE02BC0619FF00161
:1021E0001124E656FE4F408151814115510501F100
:1021F0002281338121153105D9F08D919C91119760
:1022000084179507A9F412968D919C9113978217C4
:10221000930771F46093F601EF012496802F9D2DB2
:102220009C01D90186E00D9009928150E1F767C0C9
:102230006F5F683098F21092F60120E03BE011C029
:10224000239FF0011124E656FE4F80819181892B56
:1022500039F482819381892B19F42093F6013CC0D3
:102260002F5F283068F32093F6012830A9F51092EB
:10227000F9011092F7011091F801C12FD0E060E050
:1022800070E040E08BE0E82EF12C18C0842F90E045
:102290008E9DF0018F9DF00D9E9DF00D1124E65650
:1022A000FE4F52859E01251B3109872F90E0821732
:1022B00093071CF4712F751B642F4F5F483030F368
:1022C0006093F7017093F9016093F6018BE0689FCA
:1022D000F0011124E656FE4F8D919D910D90BC9119
:1022E000A02DEF0189939993A993B993202F3D2DA8
:1022F000C901DC0186E00D9009928150E1F78091DF
:10230000F8018287DF91CF911F910F91FF90EF909D
:10231000DF900895CF93DF9380912E0290912F024A
:102320008A9728F410922F0210922E02A6C01092C3
:102330002F0210922E02C8E8D2E080919C02909168
:102340009D0221E08030920729F08050924009F0F0
:1023500094C076C02091AE023091AF028091840289
:10236000909185022817390709F087C02091B002A3
:102370003091B10280918602909187022817390727
:1023800009F07BC0CE014C96BE016A5E7F4F0E9471
:10239000DD1080E092E090939D0280939C02DE012C
:1023A0009096FE01769686E001900D928150E1F7BD
:1023B000AEE9B2E0E8E8F1E086E001900D928150EC
:1023C000E1F7AEE8B2E0E8E8F1E086E001900D92D6
:1023D0008150E1F7E8E8F2E0DF01909686E00D90A9
:1023E00001928150E1F78091A4029091A50290930F
:1023F000AF028093AE028091A6029091A7029093C3
:10240000B1028093B00280918402909185029093F2
:10241000A5028093A40280918602909187029093F6
:10242000A7028093A60288E096E09093950280939D
:1024300094028AE290E090932F0280932E021DC0B6
:102440002091AE023091AF0280918402909185027A
:102450002817390791F42091B0023091B102809190
:102460008602909187022817390739F4CE014C96DD
:10247000BE016A5E7F4F0E94DD10DF91CF9108950B
:102480000E9471060E943A0308950E94050680E0AA
:1024900069EC71E040E050E00E94061402C00E9426
:1024A0003A030E94CA028130D1F70E94EB060895D8
:1024B00008950F931F9380910E0290910F02892B24
:1024C00021F100913702109138028AEA90E00E94CF
:1024D0009800AC01C8016AEA70E00E948F00809108
:1024E0000C0290910D02800F911FE0913902F09142
:1024F0003A0220910E0230910F02628973892617E9
:10250000370708F4B9010E9408091F910F91089537
:102510000F931F93CF93DF9380913602482F86FF4E
:1025200005C01092FB011092FC01D6C05091FC0135
:10253000533009F4DDC080FF22C01092FB0180916E
:102540000E0290910F020097D1F0E0913902F091C4
:102550003A02228933898217930708F49C01821B6F
:10256000930B90930F0280930E0280910C02909136
:102570000D02280F391F30930D0220930C0241FFEA
:10258000A0C01092FB01C0912E02D0912F025523C2
:1025900009F45BC064C0E0913702F0913802819188
:1025A000890105501E4FD80155968C93F09338023F
:1025B000E093370221978A3009F041C080E192E030
:1025C00062E271E048E050E00E94B100009749F5F6
:1025D0001092FD0189E192E06BE271E044E050E08D
:1025E0000E94B100009711F481E015C089E192E0EA
:1025F00060E371E044E050E00E94B100009751F0C8
:1026000089E192E065E371E044E050E00E94B100AE
:10261000009721F482E08093FD0109C0F801148A3B
:1026200006C080E280933602C0E0D0E018C010926D
:102630001B0210921A0281E08093FC0110C02F5FF0
:102640003F4F30931B0220931A02209741F02091B4
:102650001A0230911B022A30310508F49CCF809178
:10266000FC01813071F524C0E0913702F09138020D
:102670008191D901A550BE4F55968C93F0933802A5
:10268000E093370221978A3069F4809110028D30EF
:1026900021F482E08093FC0114C010921B0210927E
:1026A0001A0206C02F5F3F4F30931B0220931A027D
:1026B000209739F020911A0230911B022A303105FF
:1026C00098F280913602282F30E082FD05C0C901C2
:1026D00083709070892B19F00E9459120CC023FF4F
:1026E0000AC08091FB018F5F8093FB01843619F44F
:1026F00080E280933602DF91CF911F910F91089570
:10270000CF92DF92EF92FF920F931F93DF93CF93BD
:1027100000D000D0CDB7DEB78C017B016A01FC018F
:10272000218130E08081992787FD9095982F882717
:10273000282B392B39832A83238130E08281992702
:1027400087FD9095982F8827282B392B3B832C8346
:10275000CB010E940409BC01CE0101960E948908A8
:10276000892B11F480E025C0F092FF01E092FE0178
:1027700082E092E0B6014AE050E00E94BF0080E0B3
:1027800092E0B80142E050E00E94BF001092FC01CC
:102790008AEA90E00E94980090930F0280930E02C4
:1027A00010920D0210920C0210921B0210921A024B
:1027B00081E00F900F900F900F90CF91DF911F91BC
:1027C0000F91FF90EF90DF90CF90089580912002BD
:1027D000882359F480E191E060E570E040E051E049
:1027E0000E94801381E0809320028AEF91E00E9492
:1027F000401208958AEF91E00E94451208950E94C8
:10280000D9140E94FA130E94E613FDCF823000F51E
:10281000E82FF0E0EE0FFF1FEF5DFD4F7183608347
:10282000882319F08130A1F408C0809169008C7F61
:10283000842B80936900E89A089580916900440F81
:10284000551F440F551F837F842B80936900E99A9D
:1028500008951F920F920FB60F9211242F933F935A
:102860004F935F936F937F938F939F93AF93BF9398
:10287000EF93FF938091210290912202892B29F0FE
:10288000E0912102F09122020995FF91EF91BF9111
:10289000AF919F918F917F916F915F914F913F91F8
:1028A0002F910F900FBE0F901F9018951F920F92AF
:1028B0000FB60F9211242F933F934F935F936F9313
:1028C0007F938F939F93AF93BF93EF93FF938091E9
:1028D000230290912402892B29F0E0912302F091A8
:1028E00024020995FF91EF91BF91AF919F918F9134
:1028F0007F916F915F914F913F912F910F900FBEFC
:102900000F901F9018951F920F920FB60F921124DF
:102910002F933F938F939F93AF93BF9380912902FF
:1029200090912A02A0912B02B0912C0230912D029D
:102930000196A11DB11D232F2D5F2D3720F02D579E
:102940000196A11DB11D20932D0280932902909321
:102950002A02A0932B02B0932C0280912502909121
:102960002602A0912702B09128020196A11DB11D57
:102970008093250290932602A0932702B093280209
:10298000BF91AF919F918F913F912F910F900FBE6B
:102990000F901F9018958FB7F894209129023091CD
:1029A0002A0240912B0250912C028FBFB901CA011B
:1029B0000895789484B5826084BD84B5816084BDB7
:1029C00085B5826085BD85B5816085BDEEE6F0E0A8
:1029D000808181608083E1E8F0E080818260808393
:1029E000808181608083E0E8F0E080818160808385
:1029F000E1EBF0E0808184608083E0EBF0E08081B7
:102A000081608083EAE7F0E0808184608083808158
:102A10008260808380818160808380818068808300
:0A2A20001092C1000895F894FFCF52
:102A2A002F000A000105C0A80F01FFFFFF000301E4
:102A3A00D070039800000000FFFFFFFFFFFFFFFFB9
:102A4A00FFFF485454502F312E31003230302000CD
:0A2A5A003330312000333032200009
:00000001FF
