:100000000C94B8000C946C140C9499140C94D500B6
:100010000C94D5000C94D5000C94D5000C94D5000C
:100020000C94D5000C94D5000C94D5000C94D500FC
:100030000C94D5000C94D5000C94D5000C94D500EC
:100040000C94C6140C94D5000C94D5000C94D500D7
:100050000C94D5000C94D5000C94D5000C94D500CC
:100060000C94D5000C94D500486F797400506169E8
:100070006765313233000102030405060708090AE7
:100080000B0C0D000000000000000000000000004C
:100090000000000000000000000000000000000060
:1000A00000000000000000000000485454502F31B0
:1000B0002E3120323030204F4B0D0A436F6E746565
:1000C0006E742D547970653A20746578742F687455
:1000D0006D6C0D0A0D0A3C63656E7465723E3C687A
:1000E000313E48656C6C6F20576F726C6421212023
:1000F0004920616D205769536869656C643C2F68BD
:10010000313E3C666F726D206D6574686F643D2290
:100110006765742220616374696F6E3D2230223EF0
:10012000546F67676C65204C45443A3C696E707546
:100130007420747970653D227375626D6974222034
:100140006E616D653D2230222076616C75653D22C1
:100150004C454431223E3C2F696E7075743E3C2FF5
:10016000666F726D3E3C2F63656E7465723E000073
:1001700011241FBECFEFD4E0DEBFCDBF11E0A0E061
:10018000B1E0E0EBFAE202C005900D92A232B107B5
:10019000D9F713E0A2E2B1E001C01D92AC3DB10776
:1001A000E1F70E9442140C9456150C940000FB01D8
:1001B000DC0102C005900D9241505040D8F70895DF
:1001C000FC0105900020E9F7809590958E0F9F1F08
:1001D0000895FB01DC0102C001900D924150504096
:1001E000D8F70895DC0101C06D9341505040E0F70D
:1001F0000895FB01DC014150504030F08D91019099
:10020000801919F40020B9F7881B990B08950E94F2
:100210000E15089590E05EE34EE23FE32FEF50931A
:10022000290110922A0140932B012A98A9E2B1E0FA
:10023000FD0180818EBD0DB407FEFDCF8EB581938B
:1002400081E0EC32F807A9F72A9A30932901992323
:1002500011F08FE001C080E880932A0120932B01E8
:100260002A988C918EBD0DB407FEFDCF8EB58D936F
:1002700081E0AC32B807A9F72A9A913011F091E0E9
:10028000CECF8EE38093290110922A018AE28093D7
:100290002B012A9820E030E0F901E75DFE4F8081D4
:1002A0008EBD0DB407FEFDCF8EB580832F5F3F4F0F
:1002B0002330310589F72A9A9FE7909329011092FC
:1002C0002A0110922B012A9820E030E0F901E75D25
:1002D000FE4F80818EBD0DB407FEFDCF8EB58083AD
:1002E0002F5F3F4F2330310589F72A9A80912A01E9
:1002F00084FFE3CF9FE69093290110922A01109288
:100300002B012A9820E030E0F901E75DFE4F808163
:100310008EBD0DB407FEFDCF8EB580832F5F3F4F9E
:100320002330310589F72A9A80912A01882321F404
:1003300080912B018823F9F208958EE6809329019C
:1003400010922A0110922B012A98A9E2B1E0FD0136
:1003500080818EBD0DB407FEFDCF8EB5819381E007
:10036000EC32F807A9F72A9A8DE2809329018FEFE2
:1003700080932A0180932B01108211822A988C91FC
:100380008EBD0DB407FEFDCF8EB58D9381E0AE32EC
:10039000B807A9F72A9A0895282F82E480932901A3
:1003A00010922A012A98A9E2B1E0FD0180818EBD58
:1003B0000DB407FEFDCF8EB5819381E0EB32F807D7
:1003C000A9F72A9A81E08093290130912A016623B6
:1003D00011F0922F01C090E0822F80958323982BFB
:1003E00090932B0120932A012A988C918EBD0DB4F5
:1003F00007FEFDCF8EB58D9381E0AC32B807A9F72B
:100400002A9A0895E89881E080932E01089581E466
:100410008093290110922A0110922B012A98E9E277
:10042000F1E080818EBD0DB407FEFDCF8EB58193C6
:1004300081E0EC32F807A9F72A9A21E090912B018C
:1004400080912A01982397FF15C02093290180E805
:1004500080932A012A98339780818EBD0DB407FEC0
:10046000FDCF8EB5819381E0EB32F807A9F72A9A88
:1004700085E316C096FF5FC02093290180E4809336
:100480002A012A98339780818EBD0DB407FEFDCFD7
:100490008EB5819381E0EB32F807A9F72A9A83E3BE
:1004A00080648093290110922A0110922B012A98CE
:1004B000E9E2F1E080818EBD0DB407FEFDCF8EB57F
:1004C000819381E0EC32F807A9F72A9A90912A01EA
:1004D00080E020912B0130E0282B392B3F70A09138
:1004E0003401B091350180E88C932F5F3F4F2A98FB
:1004F00040E050E0FD01E40FF51F80818EBD0DB49A
:1005000007FEFDCF8EB580834F5F5F4F42175307C5
:1005100088F32A9A80ED809329012A9880912901F5
:100520008EBD0DB407FEFDCF8EB5809329012A9AAA
:1005300081E080932F0110922E01E89A0895DC014A
:1005400080EA8093290181E080932A0180932B0126
:1005500010922C0110922D012A98E9E2F1E080819D
:100560008EBD0DB407FEFDCF8EB5819381E0EE32D6
:10057000F807A9F78AEA16968C93169717968C9324
:10058000179783E018968C9318971B961C921B97CD
:100590001A961C921A9719961C9219972A9820E07D
:1005A00030E00CC0FD01E20FF31F80818EBD0DB461
:1005B00007FEFDCF8EB580832F5F3F4F261737078D
:1005C00088F32A9A80EC809329012A988091290146
:1005D0008EBD0DB407FEFDCF8EB5809329012A9AFA
:1005E000089580913201882319F420E030E006C09C
:1005F000109232012091360130913701C9010895DE
:1006000080933101089580912801089590933501D8
:10061000809334017093370160933601089582E22C
:1006200091E00895CF93DF93EB01E0913401F091D5
:1006300035019589868988839983DF01159686E03F
:100640000D9001928150E1F7809134019091350134
:10065000DC011696FC013B9686E001900D928150DC
:10066000E1F72091340130913501B901645F7F4F8A
:10067000235E3F4F48815981CB01B9010E94E900B7
:10068000888199810C9699838883DF91CF91089511
:100690000F931F938C0183E0D8018C938DE011960A
:1006A0008C93119712961C9212978091E3011396E6
:1006B0008C93F801349680E2DF011D928A95E9F768
:1006C0004091E301CF0168E670E050E00E94D7005E
:1006D000C801849666E770E044E350E00E94D700CA
:1006E0001F910F9108950F931F93CF93DF938091E4
:1006F0003101882399F080913301882379F4609146
:1007000036017091370180913401909135010E943A
:100710009F021092310181E08093330180912E017C
:10072000882311F00E94070280912F01882309F489
:100730007EC0E0913401F09135018181823081F0F9
:10074000833020F4813009F070C007C0833009F491
:1007500041C0843009F069C03FC01092330165C0C8
:100760009381913009F061C082818C3029F18D3004
:1007700030F48830E9F18A3009F057C01BC083316A
:1007800029F18431A1F1803109F04FC08781809334
:1007900022018085809323018185809324018285B5
:1007A000809325018385809326018485809327018A
:1007B00086E01EC088E01CC0A8E3B1E0379680E266
:1007C00001900D928150E1F787E012C0299A909331
:1007D00028012BC084E00CC08281813030F183304D
:1007E00018F0843011F507C029981092280183E091
:1007F000809330011AC0938180E0248130E0282B5F
:10080000392B2130310519F02530310521F4299893
:10081000109228010AC02230310519F02630310526
:1008200021F4299A81E08093280110922F01909160
:100830003001943009F40FC2953040F4923091F0B9
:10084000933008F0ADC1992359F013C2973009F4E1
:10085000FCC0983009F455C1963009F00AC244C072
:1008600082E005C2E0913401F091350180EB808394
:10087000E0913401F09135019183E0913401F091E0
:10088000350180E18283E0913401F09135011382DA
:10089000E0913401F091350181E0848320913401AD
:1008A000309135012A98C901FC019C012B5F3F4F13
:1008B00080818EBD0DB407FEFDCF8EB58193E2170A
:1008C000F307B1F72A9AE0913401F091350180ECF9
:1008D0008083E0913401F09135012A9880818EBDAA
:1008E0000DB407FEFDCFB3C180910C01813041F002
:1008F000813020F0843008F0BCC141C088E0B7C12D
:10090000E0913401F091350180EB8083E091340176
:10091000F091350182E08183E0913401F09135015D
:100920008AE08283809134019091350103960E9480
:10093000480320913401309135012A98C901FC0106
:100940009C01255A3F4F80818EBD0DB407FEFDCF1F
:100950008EB58193E217F307B1F72A9AE09134013B
:10096000F091350180EC8083E0913401F091350104
:100970002A9880818EBD0DB407FEFDCF68C1E0913D
:100980003401F091350180EB8083E0913401F091E6
:10099000350182E08183E0913401F09135018CE0F2
:1009A00082830091340110913501F8013396D8010A
:1009B00013961C928091E40181838091E3018283EC
:1009C0001382F801379680E2EF0119928A95E9F7D0
:1009D0004091E301CF0168E670E050E00E94D7004B
:1009E000095D1F4F80E4F80111928A95E9F7409163
:1009F000E401C8016DE670E050E00E94D70020914C
:100A00003401309135012A98C901FC019C01295912
:100A10003F4F80818EBD0DB407FEFDCF8EB5819313
:100A2000E217F307B1F72A9AE0913401F09135010A
:100A300080EC8083E0913401F09135012A98808127
:100A40008EBD0DB407FEFDCF02C1E0913401F091DF
:100A5000350180EB8083E0913401F091350182E033
:100A60008183E0913401F091350188E08283009127
:100A7000340110913501D8011396E8011B82809151
:100A8000E30111968C931197F801359680E2EF01FE
:100A900019928A95E9F711964C91CF0168E670E0BA
:100AA00050E00E94D700D8019596E8E3F1E080E29B
:100AB00001900D928150E1F78091340190913501C0
:100AC0002A989C01F9012B5B3F4F80818EBD0DB4AC
:100AD00007FEFDCF8EB58193E217F307B1F72A9A8F
:100AE000E0913401F091350180EC8083E091340194
:100AF000F09135012A9880818EBD0DB407FEFDCF9F
:100B0000A6C0E0913401F091350180EB8083E09143
:100B10003401F091350182E08183E0913401F0915C
:100B2000350184E18283E0913401F091350181E067
:100B30008383E0913401F09135018AE08483E09170
:100B40003401F091350183E18583E0913401F09126
:100B50003501168220913401309135012A98C9015E
:100B6000FC019C01295F3F4F80818EBD0DB407FEC3
:100B7000FDCF8EB58193E217F307B1F72A9AE09182
:100B80003401F091350180EC8083E0913401F091E3
:100B900035012A9880818EBD0DB407FEFDCF57C068
:100BA000E0913401F0913501EF01239680EB8083D1
:100BB000A0913401B091350182E011968C93A091FF
:100BC0003401B091350183E112968C9380910C0130
:100BD00083838091E3018983359680E2DF011D9252
:100BE0008A95E9F74091E301CF0168E670E050E0B3
:100BF0000E94D7001BA21AA280910D01813011F032
:100C0000823009F48CA380913401909135012A98A7
:100C10009C01F901275D3F4F80818EBD0DB407FE19
:100C2000FDCF8EB58193E217F307B1F72A9AE091D1
:100C30003401F091350180EC8083E0913401F09132
:100C400035012A9880818EBD0DB407FEFDCF8EB58B
:100C500080832A9A0BC0809134019091350166E31C
:100C600071E00E94120381E08093320185E080935D
:100C70003001DF91CF911F910F91089584B18E6261
:100C800084B9249884E085B980E58CBD81E08DBD70
:100C90008DB58EB510922E0110922F011092300159
:100CA00010922801109231011092320110923301FA
:100CB00088E492E0909335018093340180E991E0DB
:100CC00090933701809336010E940A010E949D0192
:100CD0008FEF60E00E94CC0180EC61E00E94CC01CB
:100CE00088E690E00E94E0008093E3018DE690E0CA
:100CF0000E94E0008093E40108950F931F93609198
:100D0000F2017091F30161157105F1F0673371051E
:100D100018F488E492E013C00EE712E09B0126531A
:100D200030406091FB017091FC01C801A9010E9453
:100D3000E9006091F2017091F301C801C6970E9429
:100D4000060381E00E9400031F910F9108950E9405
:100D5000F1020895DC0112968D919C9113970097F2
:100D600029F08B51914009F0BDC01DC052962D91C4
:100D70003C91539718968D919C9119971F969C932F
:100D80008E931E9751963C932E9350971C968D915F
:100D90009C911D97892B09F060C08BE191E013961F
:100DA0009C938E9312971C968D919C911D97892BE5
:100DB00069F454968C915497823021F483E05496D0
:100DC0008C938EC08091FA0181FF8AC082E0549694
:100DD0008C9354978091FB019091FC0117969C9302
:100DE0008E9316978091F2019091F3011D969C933A
:100DF0008E931C9732C01696ED91FC911797208127
:100E00001E96ED91FC911F97208316968D919C91D3
:100E10001797019617969C938E9316971E968D9111
:100E20009C911F9701961F969C938E931E971C96DC
:100E30008D919C911D9701971D969C938E931C9765
:100E400050968D919C915197019751969C938E93BA
:100E50005097261711F482E02FC050968D919C91E7
:100E60005197892B31F01C968D919C911D97892B60
:100E700011F61C968D919C911D97892BA9F480E009
:100E80001BC01696ED91FC9117978191215030402F
:100E90001D963C932E931C971796FC93EE931697F2
:100EA000861711F483E008C01C962D913C911D9784
:100EB0002115310531F781E081FF68CF52962D91E0
:100EC0003C91539750968D919C91519728173907D3
:100ED00049F454961C92549713961C921E921297A2
:100EE00080E0089513961C921E92129782E0089556
:100EF000FC01148A1586148671876087538B428B98
:100F000077876687518B408B118210821382128201
:100F10000895CF93DF93EC018C89863031F4809172
:100F2000FA0182FD02C080E013C02A853B85E09172
:100F3000FD01F091FE01628973898C819D816217A8
:100F4000730708F0B9010E94650A86E08C8B81E086
:100F5000DF91CF910895CF92DF92EF92FF921F938E
:100F6000CF93DF93EC017B016A018A819B8100971B
:100F700029F08E3E910509F056C01EC0611571051D
:100F800021F41B821A8281E051C0CA01FB0109953C
:100F90009B878A878091FB019091FC019D838C83C4
:100FA0001C8A8091FA0182FF03C0C601F7010995EE
:100FB0008EEE90E09B838A838C89863031F5809118
:100FC000FA0180FF22C08A859B85E091FD01F091A6
:100FD000FE01428953892C813D814817590758F4F5
:100FE000841B950B9B878A8782899389280F391FD9
:100FF0003D832C8306C0280F391F3D832C831B861D
:101000001A8681E08C8B11E001C010E0CE010E94B5
:101010008907182311F480E009C08A859B85892BF4
:1010200009F0BFCF1C8A1B821A8282E0DF91CF9128
:101030001F91FF90EF90DF90CF9008950F931F9333
:101040000E94A7069093F3018093F201892B81F10E
:10105000009154021091550280E098E00E94610ACC
:101060000817190769F481E00E947B0A8091F20158
:101070009091F301892B09F458C00E94361115C0D4
:10108000009154021091550286E098E00E94610A96
:101090000817190709F049C00E94E7128091F20170
:1010A0009091F301892B09F440C00E947D063DC058
:1010B00088E591E00E943009892BB9F188E591E03B
:1010C0000E941E098FEF91E09093FE018093FD0135
:1010D00082E00E947B0A8091F2019091F301892BBA
:1010E00021F00E9436110E947D068091F2019091BC
:1010F000F301892B71F488E691E00E943009892B75
:1011000041F088E691E00E941E090E94D0100E94E2
:101110007D0680E691E00E943009892B31F080E65F
:1011200091E00E941E090E94A3101F910F91089543
:10113000CF92DF92EF92FF920F931F930E940F03C3
:10114000FC0110810181F280E380D480C58088E5B4
:1011500091E044EF51E060E070E00E94520980E6C7
:1011600091E040E157E260E070E00E94520988E6B9
:1011700091E040E355E760E070E00E9452090E9470
:10118000260A1093700100937101F0927201E092AF
:101190007301D0927401C09275010E943314909132
:1011A000020180E04091030150E0482B592B30911F
:1011B000000120E08091010190E0822B932B90931D
:1011C0004402809345025093460240934702909117
:1011D000060180E04091070150E0482B592B3091E7
:1011E000040120E08091050190E0822B932B9093E5
:1011F0003C0280933D0250933E0240933F02909107
:101200000A0180E040910B0150E0482B592B3091AE
:10121000080120E08091090190E0822B932B9093AC
:1012200040028093410250934202409343021F9137
:101230000F91FF90EF90DF90CF900895FC01808197
:101240009181A281B3812481358146815781820FAA
:10125000931FA41FB51F80839183A283B383089536
:101260000F931F938C010E940701E0E0F0E0D8018A
:101270002D913D914D915C911397621B730B840BE3
:10128000950B14962D913D914D915C911797621796
:1012900073078407950710F0E1E0F0E0CF011F919C
:1012A0000F9108950F931F938C01FC014483558384
:1012B000668377830E940701F801608371838283CC
:1012C00093831F910F910895FC015381560F509302
:1012D000F901272F33274281420F4093F801A18162
:1012E000A093F701E081E093F601842F90E082174C
:1012F000930748F48A2F8F5F8093F701882319F4AE
:10130000EF5FE093F601852F90E0707086179707E6
:1013100090F4842F8F5F8093F801882361F480918B
:10132000F7018F5F8093F701882329F48091F601FC
:101330008F5F8093F6010895E6E5F2E040E050E02B
:10134000308120E08181B901680F711D460F571F60
:101350004617570710F44F5F5F4F329672E0E93639
:10136000F70770F382E0E936F80751F4908180E0E6
:10137000480F591F4817590718F44F5F5F4F06C0B1
:101380004115510519F42FEF3FEF02C0342F252FDF
:10139000C901089580915902682F70E0645170402E
:1013A0009091580280E0680F791FAB014A5F5F4F50
:1013B000E2E6F2E0308120E08181D901A80FB11D81
:1013C0004A0F5B1F4A175B0710F44F5F5F4F32965F
:1013D000B2E0E936FB0770F382E0E936F80749F43A
:1013E000908180E0480F591F4817590710F44F5F4C
:1013F0005F4F67597D4FEAE6F2E00EC0308120E092
:101400008181D901A80FB11D4A0F5B1F4A175B07E5
:1014100010F44F5F5F4F3296E617F70778F3E61741
:10142000F70751F4908180E0480F591F481759077A
:1014300018F44F5F5F4F06C04115510519F42FEFA7
:101440003FEF02C0342F252FC901089510923B02AF
:1014500010923A021092180281E080937E0180E09F
:1014600094E090937D0180937C0108959C0180918C
:101470003A0290913B02892B39F410927E0130930D
:101480003B0220933A02089581E080937E01089503
:10149000BC018091FD019091FE0108960E946409B3
:1014A000E091FD01F091FE018091F601808780912D
:1014B000F70181878091F80182878091F901838704
:1014C0000895282F892F922F0895AC01FB0116163D
:1014D000170684F46093DA03F093DB032091F401A0
:1014E0003091F5018217930729F0C901BA01AF01C4
:1014F0000E94E90008950F931F93CF93DF93C0914B
:10150000FD01D091FE012EE732E03093FC012093E3
:10151000FB013093F5012093F401833059F4898D58
:101520008F70833009F004C688899989892B09F066
:10153000FFC589C0823009F08AC080917B018F5F2E
:1015400080937B01882399F480917A018F5F809347
:101550007A01882361F4809179018F5F809379010A
:10156000882329F4809178018F5F8093780110920D
:10157000F3011092F2011092DB031092DA03298D2D
:10158000273011F0253041F48A8D8F5F8A8F88379C
:1015900009F0CEC5198ECCC5222309F4C9C58889A6
:1015A0009989892B09F44BC08A8D81508A8F8F5F6E
:1015B00009F0BEC53B8D383029F02150223048F467
:1015C000353039F4198E80E88093FA010E94D213E5
:1015D00065C4353010F080E307C083E090E002C0BE
:1015E000880F991F3A95E2F78A8F8B8D8F5F8B8FCB
:1015F000898D90E08F70907083309105D1F08430A8
:10160000910544F48130910509F42EC2029709F046
:101610008FC50CC08630910509F4D3C3883091057D
:1016200009F4CFC3049709F083C5CBC310927702A6
:101630001EC284E08093FA010E94D21364C42F700A
:10164000233009F075C588E08093FA011BC4890135
:101650000852104080915602853409F069C5909176
:10166000580280E020915902AC01420F511D809137
:10167000F2019091F3018417950708F459C550932E
:10168000F3014093F20180915C0290E08F739070BF
:10169000892B09F04DC580915D02882309F048C56A
:1016A000209144023091450280910E0190910F01EA
:1016B0002817390731F48091460290914702892B0F
:1016C000A1F080916602909167028217930709F05A
:1016D0002FC5209168023091690280914602909155
:1016E00047022817390709F023C50E949C098F5F1C
:1016F0009F4F09F01DC580915F028630D1F1813086
:1017000009F016C580916A02883009F011C510925F
:101710006A0280916C0290916D02EFEF873F9E0705
:1017200010F0099601C0089690936D0280936C02A8
:1017300080916202909163029093670280936602A7
:10174000809164029091650290936902809368028F
:1017500080914402909145029093630280936202CB
:1017600080914602909147029093650280936402B3
:10177000E3C40E94CA098F5F9F4F09F0D9C4CFEF1D
:10178000D1E0898D882329F120916C0230916D027E
:101790008C819D8128173907E1F420916A023091EC
:1017A0006B028E819F812817390799F4209162027C
:1017B00030916302888199812817390751F420916B
:1017C0006402309165028A819B812817390709F4E8
:1017D00067C1EB9621E0CF3FD20799F290F280915A
:1017E00077028F738230F1F480916C0290916D02D8
:1017F000909381018093800110927E0141E00EC0A0
:10180000209180013091810180913A0290913B02B8
:101810002817390709F470C040937E0180917E013A
:10182000882371F38091770282FD82C484E1F801FC
:1018300081A388E290E09093F3018093F20180E528
:1018400080A39091710280917502838F3091700214
:1018500080917402828F368F40916F028091730263
:10186000818F458F20916E0220937E0180917202BC
:10187000808F248F9F5F978F992361F4832F8F5FD1
:10188000868F882339F4842F8F5F858F882311F406
:101890002F5F248F20916A0230916B023093810177
:1018A0002093800180916C0290916D02F801958BDC
:1018B000848B378B268B8091620290916302909388
:1018C0006702809366028091640290916502909312
:1018D000690280936802809144029091450290933E
:1018E0006302809362028091460290914702909336
:1018F000650280936402DEC310927E01C0E0D0E0F6
:1019000021E014C080911802882319F4CFEFD1E0B0
:1019100014C0873049F4209729F0909119028A8DDC
:10192000891710F4CFEFD1E020937E0180917E01E2
:10193000882341F3209709F4FBC3D093FE01C093A1
:10194000FD0183E08A8F888F1E8A84E08F8B1B8E37
:1019500080916C0290916D029D838C8380916A02CC
:1019600090916B029F838E838091620290916302BB
:101970009983888380916402909165029B838A8316
:1019800081E0898F809178018C87809179018D87A2
:1019900080917A018E8780917B018F8781E090E032
:1019A000998B888B809171028B87809170028A87D6
:1019B00080916F02898780916E02888781E090E034
:1019C0000E94480A8091760290E0807F9070813575
:1019D00091050CF449C010927E0134C0F901E85B16
:1019E000FD4F86A980937F018823F1F1813021F496
:1019F0004F5F40937E0126C08230C1F487A98430B6
:101A0000A9F430AD20E081AD90E0822B932B909330
:101A1000810180938001F1E08A349F0710F089E40E
:101A200091E09B8B8A8B9D8B8C8B1EC090917E014D
:101A3000E92FF0E0E85BFD4F87A98823A9F0890F23
:101A400080937E0140917E01242F30E080917602C8
:101A500082958F7090E00597880F991F880F991FC6
:101A6000281739070CF4BACF80E180937702809170
:101A7000770282608093770282E080937E0284E026
:101A800080937F0281E08093800289E480938102C9
:101A90008CE290E09093F3018093F20180E6B7C26C
:101AA000D093FE01C093FD011092FA01809177025C
:101AB000482F50E082FF03C0198E80E251C280910E
:101AC000760282958F70880F880F80937E01209117
:101AD000F2013091F30124513040281B3109309339
:101AE000F3012093F201898D8F70823029F44F73B6
:101AF00050704231510509F1232B39F4809177025E
:101B000090E083709070892BC1F090916E0288856F
:101B1000981709F072C290916F028985981709F0A1
:101B20006CC2909170028A85981709F066C29091F4
:101B300071028B85981709F060C28091770284FF4B
:101B400051C0688979896115710509F44BC0CE01CE
:101B50000C960E946409209172028091F601281768
:101B600009F040C0909173028091F7019817D1F568
:101B7000909174028091F8019817A1F590917502E7
:101B80008091F901981771F52C878091F7018D8765
:101B90008091F8018E878091F9018F878B8D882342
:101BA000D1F42E89988D8A8D981B822F86958695E3
:101BB0008695981B392F320F3E8B8F89282F2695BB
:101BC0002695821B97FD9195890F8F8B36953695BB
:101BD0003695830F888F81E08093FA01888D8A8FF4
:101BE000198A188A898D282F30E0C9018F7090706A
:101BF0008430910509F4B9C1853091055CF48230D7
:101C0000910591F1833091050CF0B1C0019709F075
:101C10008FC210C08630910509F4E7C18630910566
:101C20000CF4C3C18730910509F4E7C1089709F0A6
:101C30007FC290C18091FA0180FF7AC283E0898FD0
:101C400080E48093FA01198A188A2091F201309178
:101C5000F3012115310509F411C182E48093FA01E1
:101C6000C9010E94480A0AC18091FA0180FF74C02C
:101C7000809177028F73823109F06EC08091760275
:101C800090E0807F9070813591050CF449C01092EE
:101C90007E0134C0F901E85BFD4F86A980937F0186
:101CA0008823F1F1813021F44F5F40937E0126C0FB
:101CB0008230C1F487A98430A9F430AD20E081AD31
:101CC00090E0822B932B909381018093800121E0FF
:101CD0008A34920710F089E491E09B8B8A8B9D8B6C
:101CE0008C8B1EC090917E01E92FF0E0E85BFD4FE8
:101CF00087A98823A9F0890F80937E0140917E01F6
:101D0000242F30E08091760282958F7090E00597C5
:101D1000880F991F880F991F281739070CF4BACF1D
:101D200083E0898F80916E02888780916F02898716
:101D3000809170028A87809171028B8781E090E0A8
:101D40000E94480A82E48093FA01198A188A109244
:101D5000F3011092F20192C080E28093FA010E9496
:101D6000D213E091FD01F091FE01118E5BCD8091C7
:101D7000770280FF2AC024FD28C088899989892B91
:101D800009F0D6C18091F2019091F30101960E9471
:101D9000480A2091FA01822F80618093FA01809194
:101DA000F2019091F301892B19F022612093FA013D
:101DB0000E94D21381E090E0998B888B88E0898F14
:101DC0001B8E81E1809377021BC185FF21C060914A
:101DD0007C02362F20E040917D0250E0242B352BF1
:101DE0008091FB019091FC01820F931F9093FC0165
:101DF0008093FB01962F80E0842B952B2091F2019C
:101E00003091F301281B390B3093F3012093F20139
:101E10002091F2013091F3012115310559F0898D9E
:101E200084FD08C08091FA0182608093FA01C901A3
:101E30000E94480A9091780280E020917902820FF6
:101E4000911D90938101809380012C893D892817F1
:101E5000390710F0892B21F4309381012093800100
:101E600080918001909181019B8B8A8B8091FA01F6
:101E700090E083709070892B09F45AC11092DB03B3
:101E80001092DA030E94D2138091FA01282F85FF65
:101E900007C01092DB031092DA03198E84E192CF0F
:101EA00084FF0AC01092DB031092DA0381E090E015
:101EB000998B888B84E083CF8091DA039091DB0348
:101EC000892B01F120FF02C0198A188A8889998913
:101ED0000097A1F42A893B898091DA039091DB0372
:101EE0002817390720F43093DB032093DA0380911D
:101EF000DA039091DB03998B888B04C09093DB030A
:101F00008093DA031B8E8091F4019091F5019093F8
:101F1000FC018093FB018091DA039091DB03892B14
:101F200059F088899989009739F088969093F30140
:101F30008093F20188E10BC08091FA0181FFF8C023
:101F400088E290E09093F3018093F20180E1809326
:101F500077025CC08091FA0180FFEAC0198E80E1AF
:101F60008093FA010E94D213E3C08091F201909114
:101F7000F301009711F00E94480A80917702909136
:101F8000FA0180FF0BC090FF06C087E0898F1A8E90
:101F9000198A188A19C086E0898F16C090FF1EC062
:101FA00085E0898F198A188AC3C08091F2019091C7
:101FB000F301009711F00E94480A8091770280FF98
:101FC0000DC087E0898F1A8E81E090E00E94480A58
:101FD00080E18093FA010E94D2130FC08091F20138
:101FE0009091F301892B49F4A3C08091FA0180FFFD
:101FF0009FC087E0898F1A8E9BC080E1F80181A382
:1020000088E290E09093F3018093F20180E5809361
:1020100076028885809372028985809373028A850F
:10202000809374028B85809375028C8580936E02F9
:102030008D8580936F028E85809370028F8580934B
:10204000710286E080935F028C819D8190936B0288
:1020500080936A028E819F8190936D0280936C02BF
:1020600080914402909145029093630280936202B2
:10207000809146029091470290936502809364029A
:102080008881998190936702809366028A819B81FF
:102090009093690280936802898D84FF05C0109235
:1020A00079021092780206C081E08093780289E478
:1020B0008093790280E480935E028091F3018093A3
:1020C00058028091F2018093590210927D02109281
:1020D0007C0210927B0210927A020E94CA098095BB
:1020E000909590937B0280937A0285E480935602C8
:1020F0001092570210925D0210925C02809176015C
:102100009091770101969093770180937601909357
:102110005A0280935B0210926102109260020E9448
:102120009C0980959095909361028093600204C011
:102130001092F3011092F2011092FA01DF91CF9107
:102140001F910F9108958091E0018F5F8093E001CE
:102150001092DE014BE01FC0249FF0011124EE57C6
:10216000FE4F8281938120813181822B932B892B99
:1021700069F08091E00190E02285821B9109883707
:10218000910524F010821182128213828091DE0167
:102190008F5F8093DE012091DE012830E8F2089500
:1021A00088E492E06FEF70E046E050E00E94F200B9
:1021B000A8E6B2E0E0E7F1E086E001900D92815000
:1021C000E1F7AEE4B2E0E0E7F1E086E001900D92E5
:1021D0008150E1F7AEE5B2E0E0E7F1E086E00190A2
:1021E0000D928150E1F720914402309145023093E5
:1021F0006F0220936E028091460290914702909365
:102200007102809370023093650220936402909370
:1022100067028093660280E092E090935D02809373
:102220005C0280E091E0909357028093560288E030
:1022300090E0909359028093580286E080935A026E
:1022400084E080935B0288E096E09093550280934F
:1022500054028EE792E09093FC018093FB018AE2A6
:1022600090E09093F3018093F2010895409166020B
:1022700050916702809112019091130148175907FC
:1022800089F480916802909169028F5F9F4F51F4A9
:10229000A8E4B2E0E6E1F1E086E001900D92815021
:1022A000E1F7CFC0809144029091450284279527A1
:1022B000209140023091410282239323892B91F493
:1022C0006091680270916902809146029091470284
:1022D000862797272091420230914302822393233D
:1022E000892B89F080913C0290913D029093DB0113
:1022F0008093DA0180913E0290913F029093DD013C
:102300008093DC0108C05093DB014093DA017093A5
:10231000DD016093DC011092DE016091DA017091C1
:10232000DB014091DC015091DD01E0E0F0E020E0D4
:102330003BE013C0239FF0011124EE57FE4F808134
:1023400091816817790741F4828193814817590771
:1023500019F42093DE016DC02F5F283058F32093CD
:10236000DE01283009F065C088E492E06FEF70E08C
:1023700046E050E00E94F200E8E6F2E086E0DF018D
:102380001D928A95E9F77A97A0E7B1E086E00D9073
:1023900001928150E1F7AEE5B2E0E0E7F1E086E0DE
:1023A00001900D928150E1F78091DA019091DB016B
:1023B00090936F0280936E028091DC019091DD0119
:1023C0009093710280937002809144029091450233
:1023D0009093650280936402809146029091470237
:1023E000909367028093660280E091E090935D0293
:1023F00080935C02909357028093560288E090E0AD
:10240000909359028093580286E080935A0284E0A8
:1024100080935B0288E096E090935502809354028B
:102420008EE792E09093FC018093FB018AE290E0BA
:102430001CC0A8E4B2E0349686E001900D92815071
:10244000E1F7AEE4B2E0E0E7F1E086E001900D9262
:102450008150E1F788E090E0909355028093540218
:102460008091F2019091F3010E969093F301809385
:10247000F2010895DF92EF92FF920F931F93CF9393
:10248000DF93DC01062FD72E1092DE01E0E0F0E0B2
:1024900060E01BE02BC0619FF0011124EE57FE4F5E
:1024A000408151814115510501F12281338121156E
:1024B0003105D9F08D919C91119784179507A9F456
:1024C00012968D919C9113978217930771F46093E4
:1024D000DE01EF012496802F9D2D9C01D90186E01D
:1024E0000D9009928150E1F767C06F5F683098F2F4
:1024F0001092DE0120E03BE011C0239FF001112487
:10250000EE57FE4F80819181892B39F4828193812E
:10251000892B19F42093DE013CC02F5F283068F32B
:102520002093DE012830A9F51092E1011092DF011D
:102530001091E001C12FD0E060E070E040E08BE05E
:10254000E82EF12C18C0842F90E08E9DF0018F9D15
:10255000F00D9E9DF00D1124EE57FE4F52859E0109
:10256000251B3109872F90E0821793071CF4712FE8
:10257000751B642F4F5F483030F36093DF01709319
:10258000E1016093DE018BE0689FF0011124EE57BA
:10259000FE4F8D919D910D90BC91A02DEF018993DF
:1025A0009993A993B993202F3D2DC901DC0186E0B1
:1025B0000D9009928150E1F78091E0018287DF91CF
:1025C000CF911F910F91FF90EF90DF900895CF93DF
:1025D000DF938091F2019091F3018A9728F4109291
:1025E000F3011092F201A6C01092F3011092F201D1
:1025F000C8E4D2E080915C0290915D0221E08030DD
:10260000920729F08050924009F094C076C0209142
:102610006E0230916F02809144029091450228171A
:10262000390709F087C020917002309171028091C2
:102630004602909147022817390709F07BC0CE0166
:102640004C96BE016A5E7F4F0E943A1280E092E093
:1026500090935D0280935C02DE019096FE01769677
:1026600086E001900D928150E1F7AEE5B2E0E0E73F
:10267000F1E086E001900D928150E1F7AEE4B2E026
:10268000E0E7F1E086E001900D928150E1F7E8E4A7
:10269000F2E0DF01909686E00D9001928150E1F723
:1026A000809164029091650290936F0280936E0214
:1026B00080916602909167029093710280937002FC
:1026C0008091440290914502909365028093640248
:1026D0008091460290914702909367028093660230
:1026E00088E096E090935502809354028AE290E04D
:1026F0009093F3018093F2011DC020916E023091FE
:102700006F0280914402909145022817390791F495
:10271000209170023091710280914602909147029F
:102720002817390739F4CE014C96BE016A5E7F4FF7
:102730000E943A12DF91CF9108950E941E080E94D4
:10274000730308950E943E0680E062E072E040E07C
:1027500050E00E94491402C00E9473030E940303C8
:102760008130D1F70E9498080895CF93DF938AEAC9
:1027700090E00E94E000E091FD01F091FE01C2892D
:10278000D3898C179D0708F4EC018091FB0190918F
:10279000FC016AEA70E0AE010E94D700CE01DF9131
:1027A000CF910895CF93DF93C091FD01D091FE01A9
:1027B0008091FA0186FF09C0BE016F5C7F4FCE0198
:1027C0004C964AE050E00E9478078C8D9D8D8E35A6
:1027D000910531F18F35910530F4009741F0863540
:1027E0009105E1F508C083379105C1F52AC086E55A
:1027F00090E09D8F8C8FCE014C9660E20E94AA06DD
:10280000882371F1CE01C1966CE171E044E050E0A3
:102810000E94F9000097F9F48EE590E09D8F8C8F6F
:10282000CE014C9660E20E94AA068823C9F089A9CD
:102830008F3289F48AA9803271F483E790E09D8F0A
:102840008C8FCE014C9665EB73E140E050E00E9426
:10285000AB07882329F080E18093FA011D8E1C8E3E
:10286000DF91CF91089580E090E50E94360A0895A7
:1028700082EE91E00E949D13089582EE91E00E9405
:10288000A21308950E941C150E943D140E94381442
:10289000FDCF823000F5E82FF0E0EE0FFF1FEB5187
:1028A000FE4F71836083882319F08130A1F408C042
:1028B000809169008C7F842B80936900E89A089549
:1028C00080916900440F551F440F551F837F842B4F
:1028D00080936900E99A08951F920F920FB60F92A4
:1028E00011242F933F934F935F936F937F938F9315
:1028F0009F93AF93BF93EF93FF938091E5019091E6
:10290000E601892B29F0E091E501F091E6010995B6
:10291000FF91EF91BF91AF919F918F917F916F91B7
:102920005F914F913F912F910F900FBE0F901F908D
:1029300018951F920F920FB60F9211242F933F9369
:102940004F935F936F937F938F939F93AF93BF93B7
:10295000EF93FF938091E7019091E801892B29F093
:10296000E091E701F091E8010995FF91EF91BF91A6
:10297000AF919F918F917F916F915F914F913F9117
:102980002F910F900FBE0F901F9018951F920F92CE
:102990000FB60F9211242F933F938F939F93AF9372
:1029A000BF938091ED019091EE01A091EF01B09164
:1029B000F0013091F1010196A11DB11D232F2D5F72
:1029C0002D3720F02D570196A11DB11D2093F10147
:1029D0008093ED019093EE01A093EF01B093F0018D
:1029E0008091E9019091EA01A091EB01B091EC0195
:1029F0000196A11DB11D8093E9019093EA01A09376
:102A0000EB01B093EC01BF91AF919F918F913F91FA
:102A10002F910F900FBE0F901F9018958FB7F894BD
:102A20002091ED013091EE014091EF015091F001C4
:102A30008FBFB901CA010895789484B5826084BDBE
:102A400084B5816084BD85B5826085BD85B58160B2
:102A500085BDEEE6F0E0808181608083E1E8F0E012
:102A6000808182608083808181608083E0E8F0E003
:102A7000808181608083E1EBF0E0808184608083ED
:102A8000E0EBF0E0808181608083EAE7F0E0808124
:102A90008460808380818260808380818160808384
:102AA0008081806880831092C1000895F894FFCFE0
:102AB0000A000105C0A80F01FFFFFF00030100008D
:102AC0000000FFFFFFFFFFFFFFFFFFFF4745542010
:022AD000000004
:00000001FF
